:020000040800F2
:1000000000200020ED1A0008ED180008F318000881
:1000100000000000000000000000000000000000E0
:10002000000000000000000000000000F9180008B7
:100030000000000000000000031900080D1900086E
:100040003D1B00083D1B00083D1B00083D1B000830
:100050003D1B00083D1B00083D1B00083D1B000820
:100060003D1B00083D1B00083D1B00083D1B000810
:100070003D1B00083D1B00083D1B00083D1B000800
:100080003D1B00083D1B0008000000001D19000872
:10009000351900083D1B00083D1B00083D1B0008EA
:1000A0003D1B00083D1B00083D1B00083D1B0008D0
:1000B0004D190008000000003D1B00080000000072
:1000C00010B5064C2378002B07D1054B002B02D02E
:1000D000044800E000BF0123237010BD7800002019
:1000E00000000000AC6A0008044B10B5002B03D0E0
:1000F0000349044800E000BF10BDC04600000000F6
:100100007C000020AC6A00080023C25C0133002A96
:10011000FBD1581E7047000003B4714649084000E7
:100120004900095E49008E4403BC70470022430821
:100130008B4274D303098B425FD3030A8B4244D3AF
:10014000030B8B4228D3030C8B420DD3FF220902F1
:1001500012BA030C8B4202D31212090265D0030BB0
:100160008B4219D300E0090AC30B8B4201D3CB03A6
:10017000C01A5241830B8B4201D38B03C01A5241E8
:10018000430B8B4201D34B03C01A5241030B8B42EA
:1001900001D30B03C01A5241C30A8B4201D3CB02D5
:1001A000C01A5241830A8B4201D38B02C01A5241BA
:1001B000430A8B4201D34B02C01A5241030A8B42BD
:1001C00001D30B02C01A5241CDD2C3098B4201D3D5
:1001D000CB01C01A524183098B4201D38B01C01A53
:1001E000524143098B4201D34B01C01A52410309CA
:1001F0008B4201D30B01C01A5241C3088B4201D379
:10020000CB00C01A524183088B4201D38B00C01A25
:10021000524143088B4201D34B00C01A5241411A4C
:1002200000D20146524110467047FFE701B5002059
:1002300000F0F0F802BDC0460029F7D076E770471D
:1002400003460B437FD4002243088B4274D3030937
:100250008B425FD3030A8B4244D3030B8B4228D3D8
:10026000030C8B420DD3FF22090212BA030C8B42FE
:1002700002D31212090265D0030B8B4219D300E09E
:10028000090AC30B8B4201D3CB03C01A5241830B23
:100290008B4201D38B03C01A5241430B8B4201D3D3
:1002A0004B03C01A5241030B8B4201D30B03C01AFC
:1002B0005241C30A8B4201D3CB02C01A5241830A76
:1002C0008B4201D38B02C01A5241430A8B4201D3A5
:1002D0004B02C01A5241030A8B4201D30B02C01ACF
:1002E0005241CDD2C3098B4201D3CB01C01A524136
:1002F00083098B4201D38B01C01A524143098B42BF
:1003000001D34B01C01A524103098B4201D30B01A7
:10031000C01A5241C3088B4201D3CB00C01A5241CC
:1003200083088B4201D38B00C01A524143088B4291
:1003300001D34B00C01A5241411A00D2014652412A
:10034000104670475DE0CA0F00D04942031000D349
:100350004042534000229C4603098B422DD3030A9E
:100360008B4212D3FC22890112BA030A8B420CD3AE
:10037000890192118B4208D3890192118B4204D3D7
:1003800089013AD0921100E08909C3098B4201D357
:10039000CB01C01A524183098B4201D38B01C01A91
:1003A000524143098B4201D34B01C01A5241030908
:1003B0008B4201D30B01C01A5241C3088B4201D3B7
:1003C000CB00C01A524183088B4201D38B00C01A64
:1003D0005241D9D243088B4201D34B00C01A52413B
:1003E000411A00D20146634652415B10104601D3C8
:1003F0004042002B00D54942704763465B1000D352
:10040000404201B5002000F005F802BD0029F8D0F7
:1004100016E770477047C04680B500AFBFF34F8FF7
:10042000C046044B044ADA60BFF34F8FC046C04653
:10043000FDE7C04600ED00E00400FA0580B584B099
:1004400000AF78600023FB60124BBB6018E0BB6814
:100450000322134011D1BB6864211800FFF7D6FFB7
:100460000B1E07D1BB68C82251001800FFF7CEFF52
:100470000B1E02D1FB68013BFB60BB680133BB6014
:10048000BA687B689A42E2DBFB681800BD4604B09C
:1004900080BDC046B207000080B500AFFA239B00C4
:1004A00011491248022203F0A3FD114B5A6A80231E
:1004B000DB0413400DD0FA239B000E490B480B229E
:1004C00003F096FDFA239B0007490848022203F037
:1004D0008FFD074B5A6A064B802149040A435A6232
:1004E000C046BD4680BDC046C46A0008D400002096
:1004F00000100240C86A0008B0B58AB000AF01F031
:1005000075FD031E02D04F4A012313604E4A00239B
:1005100013604E4B1A684C4B5A604B4A0823936049
:100520004B4B1B685A1C4A4B1A604A4A464B1100F7
:10053000180001F01BFE031E02D0424A0223136082
:10054000424B1968444B9B781C0000231D0022007D
:100550002B00012001F0B4FC031E02D0394B032212
:100560001A603A4B1B689A1C384B1A60374B196853
:10057000394B5B783B6200237B623A6A7B6A0120DD
:1005800001F09EFC314B1B689A1C304B1A602F4BBC
:100590001968314B1B78BB610023FB61BA69FB69A9
:1005A000012001F08DFC294B1B689A1C274B1A6017
:1005B000264B1968294BDB783B6100237B613A6944
:1005C0007B69012001F07CFC031E02D01D4B04223C
:1005D0001A601E4B1B689A1C1C4B1A601B4B196837
:1005E0001E4B5B78BB600023FB60BA68FB68012090
:1005F00001F066FC031E02D0124B04221A60134B5A
:100600001B689A1C114B1A60104B1968134B9B788E
:100610003B6000237B603A687B68012001F050FC5E
:10062000031E02D0074B05221A60084B1B680A3BC9
:100630001A00064B1A6001F0FFFCC046BD460AB026
:10064000B0BDC046A4010020D80100200800002051
:10065000A8010020E4010020C0010020D4010020F6
:1006600080B500AF1F4B1B681A881F4B1A801D4BAB
:100670001B689A1C1B4B1A601A4B1B681A881B4B71
:100680001A80184B1B689A1C164B1A60154B1B6876
:100690001A88174B1A80134B1B689A1C114B1A604F
:1006A000104B1B681A88134B1A800E4B1B689A1C40
:1006B0000C4B1A600B4B1B681A880F4B1A80094BA6
:1006C0001B689A1C074B1A60064B1B681A880B4B59
:1006D0001A80044B1B680A3B1A00024B1A60C04682
:1006E000BD4680BD08000020980200209A0200202C
:1006F0009C0200209E020020A0020020A2020020F6
:1007000080B500AF284B1B681B88DAB2274B9A7064
:10071000254B1B689A1C244B1A60234B1B681B88B3
:10072000DAB2224B5A70204B1B689A1C1E4B1A607F
:100730001D4B1B681B88DAB21C4B1A701B491C4BE3
:100740000022180002F02EFD174B1B689A1C164B56
:100750001A60154B1B681B88DAB2164BDA70124B05
:100760001B689A1C104B1A600F4B1B681B88DAB26F
:10077000104B5A700C4B1B689A1C0B4B1A600A4B9F
:100780001B681B88DAB20B4B9A700A49084B00228F
:10079000180002F00BFE044B1B680A3B1A00024BC8
:1007A0001A60C046BD4680BD08000020C001002080
:1007B000E8010020D401002080B500AF01F0C0F9AD
:1007C00000F042F800F0C0F900F0ACF800F08CF94D
:1007D00000F032F900F008F9164B1B689A69154BC6
:1007E0001B6808210A439A61124B1B689A69114BD6
:1007F0001B6810210A439A61FFF732FFFFF74CFE96
:100800000D4B180002F0D6FF0C4B180002F0D2FF7F
:10081000FFF776FF0A49074B0122180003F088FC16
:10082000084B1B68012BFBD1FFF766FE054B00222E
:100830001A60F5E7D40000205002002008020020D2
:100840005C010020AC01002090B597B000AF2824D7
:100850003B19180030231A00002105F03DF8182339
:10086000FB18180010231A00002105F035F83B1D75
:10087000180014231A00002105F02EF801F0B0FE34
:10088000274B1A6A264B18210A431A6221007B184B
:1008900005221A607B1801225A607B1801229A6097
:1008A0007B1802221A627B18802252025A627B183D
:1008B000802252039A627B180022DA627B181800A9
:1008C00001F09CFE031E01D000F034FF18217B18BC
:1008D00007221A607B1802225A607B1800229A6055
:1008E0007B180022DA607B180121180002F0A0F9C1
:1008F000031E01D000F01EFF3B1D802252021A6031
:100900003B1D802252005A603B1D180002F0D4FAB1
:10091000031E01D000F00EFFC046BD4617B090BDCB
:100920000010024080B586B000AF3B1D18001423B4
:100930001A00002104F0D0FF3B0000221A60284B6F
:10094000284A1A60264B00225A60254B7F229A6063
:10095000234BFF22DA60224B00221A61204B002237
:100960005A611F4B00229A611D4B180002F082FB56
:10097000031E01D000F0DEFE3B1D00221A703B1D5D
:1009800000225A703B1D00229A703B1D0022DA6043
:100990003B1D00221A61391D114B0022180002F084
:1009A00001FC031E01D000F0C5FE3B0001221A70BD
:1009B0003B0001225A703B0001229A703B0000224A
:1009C000DA703900064B0022180002F0EFFC031E1B
:1009D00001D000F0AFFEC046BD4606B080BDC046A7
:1009E000E80100200028004080B500AF0E4B0F4A00
:1009F0001A600D4B0E4A5A600B4B00229A600A4B4C
:100A00000C4ADA60084B00221A61074B80229A6177
:100A1000054B180002F07EFE031E01D000F08AFE96
:100A2000C046BD4680BDC0460802002000200040F0
:100A3000E703000080BB000080B586B000AF08234C
:100A4000FB18180010231A00002104F045FF3B009A
:100A5000180008231A00002104F03EFF204B214A11
:100A60001A601F4B13225A601D4B00229A601C4BC8
:100A700096225201DA601A4B00221A61184B0022AA
:100A80005A61174B80229A61154B180002F042FE02
:100A9000031E01D000F04EFE08217B188022520177
:100AA0001A607A180E4B1100180002F0C3FF031EE3
:100AB00001D000F03FFE3B0000221A603B00002204
:100AC0005A603A00064B1100180003F0CFF9031EDC
:100AD00001D000F02FFEC046BD4606B080BDC04626
:100AE000500200200040014080B500AF144B154A71
:100AF0001A60134BE12252025A60114B00229A6095
:100B00000F4B0022DA600E4B00221A610C4B0C22B4
:100B10005A610B4B00229A61094B0022DA61084BA3
:100B200000221A62064B00225A62054B180003F09D
:100B30000BFA031E01D000F0FDFDC046BD4680BD8E
:100B4000D40000200044004090B589B000AF0C24D0
:100B50003B19180014231A00002104F0BDFE1F4B9E
:100B60005A691E4B802109030A435A611B4B5A697B
:100B700080231B031340BB60BB68184B5A69174B9B
:100B80008021C9030A435A61144B5A698023DB034D
:100B900013407B607B68114B5A69104B802189029E
:100BA0000A435A610D4B5A6980239B0213403B60F4
:100BB0003B683B1901221A603B1900225A603B191D
:100BC00002229A603A199023DB051100180001F007
:100BD00079FBC046BD4609B090BDC046001002403A
:100BE00090B585B002AF78607A497B4B002218003F
:100BF00002F06CFC7949784B0022180002F078FB77
:100C00007B681B68764A93424FD1764B1B68022B58
:100C10003CD100F0EFFF0200734B1B68D31A1A009F
:100C2000724B1A6000F0E6FF03001A006E4B1A6068
:100C3000684B9B781C00674B5B781900654BDB7831
:100C40006B4A6C480193009123001E2104F0C4FDFF
:100C5000624B1B781C00614B5B7819005F4B9B78E3
:100C6000654A66480193009123001E2104F0B4FDFB
:100C700096235B005F4962481E2203F0B9F9962370
:100C80005B005E495E481E2203F0B2F95D4B1B68B3
:100C90005A1C5C4B1A605B4B1B680A2B05D1594BE5
:100CA00000221A60584B01221A607B681B68574A61
:100CB000934200D089E0564B1B68591C544A11607E
:100CC000544AD35C722B01D1FFF7A6FB504B1B6833
:100CD0000A2B02D14E4B00221A609023DB05012122
:100CE000180001F05FFC031E03D14B4B1B78002B57
:100CF0006BD0C0469023DB050121180001F052FCA7
:100D0000031EF7D1454B00221A60454B00221A60A2
:100D1000344B00221A60FA239B00424938480222D1
:100D200003F066F9FA239B003F4935481B2203F084
:100D30005FF9FA239B003B493148022203F058F93E
:100D4000FA239B0039492E48232203F051F9FA2354
:100D50009B0034492A48022203F04AF9FA239B00F7
:100D6000334927481D2203F043F9FA239B002D49FC
:100D70002348022203F03CF9FA239B002D49204826
:100D80002A2203F035F9FA239B0026491C48022247
:100D900003F02EF9FA239B00234919481B2203F084
:100DA00027F9FA239B001F491548022203F020F976
:100DB000FA239B0020491248062203F019F91F4B21
:100DC00001221A70144B00221A70C046BD4603B0AF
:100DD00090BDC046D4010020E8010020C0010020E1
:100DE000002000400000002080010020840100203D
:100DF000D46A0008B4000020EC6A000894000020C7
:100E0000D4000020B8010020AC01002000400140C7
:100E1000940100205C010020A00100207801002046
:100E20007C010020046B0008086B0008246B00089C
:100E3000486B0008686B0008946B0008980100205C
:100E400080B582B000AF78607B681B689C4A934293
:100E500000D031E19B4B1B881A009B4B9B5C0D2BF8
:100E60005ED1984B1B881A00974B00219954974BE1
:100E70001B68002B04D1944B180000F061FA4BE082
:100E8000924B1B68012B47D1914B1B68002B13D150
:100E9000FA239B008F499048022203F0A9F8FA2315
:100EA0009B008E498C48092203F0A2F8884B1B68EE
:100EB0005A1C874B1A602FE0854B1B68012B2BD1E6
:100EC000834B1B685A1C824B1A607F4B180000F042
:100ED0001BF9FA239B007C497F48092203F088F81C
:100EE000FA239B007B497C48022203F081F8FA2315
:100EF0009B007B497848082203F07AF8FA239B008C
:100F0000784975480A2203F073F8FA239B00714967
:100F10007148022203F06CF86A4B00221A80C1E08B
:100F2000684B1B881A00684B9B5C2F2B06D9654BBE
:100F30001B881A00644B9B5C392B06D9614B1B88BC
:100F40001A00614B9B5C2E2B06D15E4B1B88013334
:100F50009AB25C4B1A80A5E05A4B1B881A005A4B78
:100F60009B5C722B06D1574B1B8801339AB2554BB1
:100F70001A8097E0534B1B881A00534B9B5C752BD0
:100F80000CD1594B01221A704E4B1B881A004E4B44
:100F90007A2199544B4B00221A8083E04A4B1B78EC
:100FA000732B03D1494B01221A607BE0474B1B682E
:100FB000012B42D1434B1B881A00434B9B5C2F2BC8
:100FC00006D9404B1B881A003F4B9B5C392B0DD92F
:100FD0003C4B1B881A003C4B9B5C402B0DD9394B7A
:100FE0001B881A00384B9B5C462B06D8354B1B8858
:100FF00001339AB2334B1A8054E0324B00221A80EC
:10100000FA239B0039493448022202F0F1FFFA2307
:101010009B00374930482D2202F0EAFFFA239B005B
:1010200032492D48022202F0E3FFFA239B002B49AC
:101030002948092202F0DCFF34E0224B00221A800A
:10104000FA239B0029492448022202F0D1FFFA2307
:101050009B0028492048212202F0CAFFFA239B0066
:1010600022491D48022202F0C3FF234B1B68002BBC
:1010700006D1FA239B0021491748062202F0B8FF47
:101080001D4B1B68012B0AD11D4B1B78002B06D072
:10109000FA239B001B491048062202F0A9FF184BB7
:1010A00001221A70074B1B881A00074BD1180A4BF4
:1010B0000122180003F03CF8C046BD4602B080BDD6
:1010C00000440040660100205C01002078010020FF
:1010D0007C010020046B0008D40000209C6B0008F9
:1010E000A86B000868010020A0010020C46A000865
:1010F000B46B0008E46B000800000020946B00084B
:1011000004000020086C000880B584B000AF78604F
:101110007B4B10220021180004F0A0FA03001A00F3
:10112000784B1A60774B1B68774A78480B2104F09C
:1011300053FB744B1B6876491800FFF781F80300D6
:10114000DAB2744BDA706F4B1B6871491800FFF705
:1011500077F80300704A944663441A006F4B1A6094
:10116000684B1B686A491800FFF750F90B001A001A
:101170006B4B1A606A4B1B686A491800FEF7D6FF72
:1011800003000C211800FFF757F80B00DBB2013306
:10119000DAB2604B5A70624B1B6863491800FEF765
:1011A000C5FF0300DAB25B4B9A705D4B1B685D496B
:1011B0001800FFF741F80B001A00594B1A60584B02
:1011C0001B6859491800FFF737F80B001A00544BF9
:1011D0001A60534B1B68E12211011800FEF7A6FFAD
:1011E0000300DAB2514B1A704D4B1B68E12211011A
:1011F0001800FFF721F80B001A00494B1A60484B02
:101200001B683C211800FEF791FF0300DAB2474B40
:101210005A70434B1B683C211800FFF70DF80B0078
:10122000DAB2424B9A703D4B1B681800FFF706F983
:1012300002003F4B1A60374B9A783D4B1B68DBB27C
:10124000D318DAB2334B9A700023FB6011E0314BB4
:101250009B781F2B11D92F4B9A78364BF968890050
:10126000CB58DBB2D31ADAB22A4B9A70FB6801333F
:10127000FB60FB680B2BEADD00E0C046274B1B68D8
:101280000322134012D1254B1B6864211800FEF77E
:10129000D3FF0B1E08D1214B1B68C8225100180038
:1012A000FEF7CAFF0B1E01D1012300E00023012B32
:1012B00005D0184B9B780133DAB2164B9A70174B56
:1012C0001B6864211800FEF7B7FF0B00DAB2114B60
:1012D000DA701049184B0022180002F067F8134921
:1012E000154B0022180001F05DFF144B02221A601A
:1012F000FFF702F9FFF7B4F9C046BD4604B080BD60
:101300005C01002074010020106C000868010020BE
:101310008033E101D4010020B207000090010020D9
:1013200088010020008D270080510100C0010020AD
:101330008C010020B46C0008E801002000000020AF
:1013400080B582B000AF7860A14B1B68002B00D045
:10135000AEE0A04B1B7801225340DBB2002B12D031
:101360009D4B1B7801225340DBB2002B0BD09B4BD3
:101370001B68012B07D0FA239B0099499948062244
:1013800002F036FE05E0934B00221A70924B0022C9
:101390001A707B681800FEF7B7FE03009AB2FA23B2
:1013A0009B0079688F4802F023FEFA239B008E4948
:1013B0008C48022202F01CFE8C4A8D4B1100180052
:1013C00004F092FA02008B4B1A608A4B1B68002BC8
:1013D00008D0884B1B68180004F026F80300DAB226
:1013E000854B1A70814B1900002004F07DFA020031
:1013F000804B1A607F4B1B68002B08D07D4B1B680D
:10140000180004F011F80300DAB27C4B1A70774B25
:101410001900002004F068FA0200764B1A60754B40
:101420001B68002B08D0734B1B68180003F0FCFFEF
:101430000300DAB2724B1A70684B00221A60704BCC
:101440001A78704BDA706D4B1A786E4B5A706A4B83
:101450001A786C4B9A706A4B1B78632B03D9002067
:1014600000F0DEF812E0654B1B780C2B03D901204D
:1014700000F0D6F80AE0604B1B781E2B03D902203F
:1014800000F0CEF802E0524B01221A60534B1B6869
:10149000002B06D1FA239B005B495248062202F03A
:1014A000A7FD5849594B0022180001F07FFF8BE03F
:1014B000474B1B68012B00D086E07B681800FEF7C5
:1014C00023FE03009AB2FA239B007968454802F094
:1014D0008FFDFA239B0044494248022202F088FD16
:1014E000424A434B1100180004F0FEF90200414B40
:1014F0001A60404B1B68002B08D03E4B1B6818003D
:1015000003F092FF0300DAB2414B1A70374B190017
:10151000002004F0E9F90200364B1A60354B1B68D5
:10152000002B08D0334B1B68180003F07DFF03002D
:10153000DAB2384B1A702D4B1900002004F0D4F9A0
:1015400002002C4B1A602B4B1B68002B08D0294B38
:101550001B68180003F068FF0300DAB22E4B1A7004
:101560001E4B00221A602A4B1A782C4B1A70294BFA
:101570001A782A4B5A70284B1A78284B9A70244BA9
:101580001B78172B03D9032000F04AF816E0214BF3
:101590001B783B2B03D9042000F042F80EE01E4BD1
:1015A0001B783B2B03D9052000F03AF806E0084BE6
:1015B00002221A60FEF7A0FFFFF752F81749134BFB
:1015C0000022180001F0EEFDC046BD4602B080BD0D
:1015D0000000002004000020980100209C01002051
:1015E000946B0008D4000020C46A0008146C000842
:1015F0005C010020BC010020B2010020B1010020EC
:10160000B0010020D4010020086C0008E80100208F
:10161000B3010020B4010020B5010020C00100206A
:1016200080B582B000AF7860344B00221A80FA2374
:101630009B0033493348022202F0DAFC7B68052B19
:1016400035D87B689A00304BD3181B689F46FA2325
:101650009B002E492B48172202F0CAFC27E0FA23F0
:101660009B002B492748162202F0C2FC1FE0FA23F8
:101670009B0028492348172202F0BAFC17E0FA23FE
:101680009B0025491F48182202F0B2FC0FE0FA2304
:101690009B0022491B481A2202F0AAFC07E0FA2309
:1016A0009B001F4917481A2202F0A2FCC046FA23E9
:1016B0009B0013491348022202F09AFC194B0122A5
:1016C0001A607B68022B0ADC174B00221A60FA238F
:1016D0009B0016490B48062202F08AFC09E0124BD7
:1016E00001221A60FA239B0011490648062202F0E3
:1016F0007FFCC046BD4602B080BDC04666010020EA
:10170000C46A0008D4000020E46C0008186C0008CB
:10171000306C0008486C0008606C00087C6C0008A5
:10172000986C00089C01002000000020946B0008C9
:10173000086C000880B500AF72B6C046FEE7000036
:1017400080B582B000AF0F4B9A690E4B01210A435E
:101750009A610C4B9B69012213407B607B68094BAB
:10176000DA69084B802149050A43DA61054BDA69D9
:1017700080235B0513403B603B68C046BD4602B01A
:1017800080BDC0460010024080B582B000AF7860D6
:101790007B681B68064A934206D1064B1A6A054BC2
:1017A000802109020A431A62C046BD4602B080BDCC
:1017B000002800400010024080B584B000AF78607F
:1017C0007B681B681C4A934216D11C4BDA691B4B81
:1017D000802149000A43DA61184BDA6980235B00F3
:1017E0001340FB60FB6800220021132000F0B8FAD0
:1017F000132000F0CAFA1AE07B681B68104A934273
:1018000015D10E4B9A690D4B802149020A439A610A
:101810000A4B9A6980235B021340BB60BB680022BD
:101820000121142000F09CFA142000F0AEFAC0460A
:10183000BD4604B080BDC0460020004000100240FC
:101840000040014090B58BB000AF786014243B1984
:10185000180014231A00002104F03EF87B681B686E
:10186000204A93423AD1204BDA691F4B80218902EA
:101870000A43DA611C4BDA6980239B0213403B6107
:101880003B69194B5A69184B802189020A435A61F6
:10189000154B5A6980239B021340FB60FB682100B3
:1018A0007B180C221A607B1802225A607B180122D6
:1018B0009A607B180022DA607B1801221A617A187C
:1018C0009023DB051100180000F0FCFC0022002131
:1018D0001C2000F045FA1C2000F057FAC046BD4617
:1018E0000BB090BD004400400010024080B500AF36
:1018F000FEE780B500AFFEE780B500AFC046BD464D
:1019000080BD80B500AFC046BD4680BD80B500AF8C
:1019100000F05EF9C046BD4680BD000080B500AF56
:10192000034B180001F098FFC046BD4680BDC0467D
:101930000802002080B500AF034B180001F08CFFB7
:10194000C046BD4680BDC0465002002080B500AFF5
:10195000034B180002F044FCC046BD4680BDC046A3
:10196000D400002080B500AF01231800BD4680BD23
:1019700080B582B000AF7860396004F067F803008A
:1019800016221A6001235B421800BD4602B080BDDA
:1019900080B582B000AF786001235A427B681100A5
:1019A0001800FFF7E5FFFEE780B586B000AFF860EE
:1019B000B9607A6000237B610AE000E000BF0100AB
:1019C000BB685A1CBA60CAB21A707B6901337B616A
:1019D0007A697B689A42F0DB7B681800BD4606B0E6
:1019E00080BD80B586B000AFF860B9607A60002332
:1019F0007B6109E0BB685A1CBA601B78180000E0E4
:101A000000BF7B6901337B617A697B689A42F1DBB5
:101A10007B681800BD4606B080BD80B582B000AFBF
:101A2000786001235B421800BD4602B080BD80B5DE
:101A300082B000AF786039603B68802292015A60C2
:101A400000231800BD4602B080BD80B582B000AF53
:101A5000786001231800BD4602B080BD80B584B017
:101A600000AFF860B9607A6000231800BD4604B08A
:101A700080BD000080B586B000AF7860144A154B79
:101A8000D31A7B617B693B61134B1B68002B02D12E
:101A9000114B124A1A60104B1A687B68D3183A69C6
:101AA0009A4207D203F0D2FF03000C221A600123EE
:101AB0005B4209E0084B1B68FB60074B1A687B68B8
:101AC000D218054B1A60FB681800BD4606B080BDF1
:101AD0000020002000040000A402002020040020B8
:101AE00080B500AFC046BD4680BD00000D488546AC
:101AF000FFF7F6FF0C480D490D4A002302E0D458C9
:101B0000C4500433C4188C42F9D30A4A0A4C002347
:101B100001E013600432A242FBD303F09DFFFEF705
:101B20004BFEFEE700200020000000207400002093
:101B3000206F0008780000201C040020FEE7000051
:101B400080B500AF074B1A68064B10210A431A6094
:101B5000032000F009F8FFF7F3FD00231800BD464D
:101B600080BDC0460020024090B583B000AF7860D1
:101B7000144B1C68144B1B781900FA239800FEF7CD
:101B8000D5FA030019002000FEF7D0FA0300180070
:101B900000F00BF9031E01D001230FE07B68032B3B
:101BA0000BD8796801235B420022180000F0D8F8B6
:101BB000064B7A681A60002300E001231800BD4636
:101BC00003B090BD0C000020140000201000002085
:101BD00080B500AF054B1B781A00054B1B68D21867
:101BE000034B1A60C046BD4680BDC04614000020AD
:101BF000A802002080B500AF024B1B681800BD464C
:101C000080BDC046A802002080B582B000AF0200AF
:101C1000FB1D1A70FB1D1B787F2B09D8FB1D1B7841
:101C20001A001F231A40044B012191400A001A6038
:101C3000C046BD4602B080BD00E100E090B583B073
:101C400000AF02003960FB1D1A70FB1D1B787F2B53
:101C500028D82F4AFB1D1B785BB29B08C0339B0022
:101C60009B58FA1D1278110003220A40D200FF216E
:101C700091400A00D2431A4011003B689B01FF22A9
:101C80001A40FB1D1B78180003230340DB009A4019
:101C90001F48FB1D1B785BB29B080A43C0339B00A7
:101CA0001A5031E01B4AFB1D1B7819000F230B4013
:101CB000083B9B0806339B00D31804331B68FA1DAE
:101CC0001278110003220A40D200FF2191400A003D
:101CD000D2431A4011003B689B01FF221A40FB1DB2
:101CE0001B78180003230340DB009A400948FB1DC2
:101CF0001B781C000F232340083B9B080A43063334
:101D00009B00C31804331A60C046BD4603B090BDA3
:101D100000E100E000ED00E080B582B000AF786047
:101D20007B685A1E80235B049A4201D3012310E092
:101D30000A4B7A68013A5A6001235B42032118007A
:101D4000FFF77CFF054B00229A60044B07221A60C4
:101D500000231800BD4602B080BDC04610E000E080
:101D600080B584B000AFB9607A600F217B18021C87
:101D70001A70BA687B181B785BB211001800FFF765
:101D80005DFFC046BD4604B080BD80B582B000AFE7
:101D90000200FB1D1A70FB1D1B785BB21800FFF7D9
:101DA00033FFC046BD4602B080BD80B582B000AFF3
:101DB00078607B681800FFF7AFFF03001800BD468E
:101DC00002B080BD80B582B000AF78607B68212210
:101DD0009B5CDBB2022B08D07B6804229A637B6891
:101DE000202200219954012320E07B681B681A6897
:101DF0007B681B680E218A431A607B681B681A681F
:101E00007B681B6801218A431A607B681A6C7B68B7
:101E1000DB6B012191400A005A607B68212201217D
:101E200099547B6820220021995400231800BD4654
:101E300002B080BD80B584B000AF78600F217B1800
:101E400000221A707B6821229B5CDBB2022B06D039
:101E50007B6804229A637B1801221A7028E07B6851
:101E60001B681A687B681B680E218A431A607B68AE
:101E70001B681A687B681B6801218A431A607B68AB
:101E80001A6C7B68DB6B012191400A005A607B6809
:101E90002122012199547B682022002199547B68DA
:101EA0005B6B002B04D07B685B6B7A6810009847F3
:101EB0000F23FB181B781800BD4604B080BD00003E
:101EC000F0B587B000AFF860B9603A607B60172367
:101ED000FB1801221A701623FB1800221A70152312
:101EE000FB1800221A703E4B1B7E012B01D10223EE
:101EF00072E03B4B01221A761723FE18394B18006B
:101F000000F0C4F8030033701723FB181B78002B74
:101F10005CD1FB68012B04D11523FB1801221A7038
:101F20000BE0FB68022B04D11523FB1802221A7068
:101F300003E01523FB1804221A701623FB18002255
:101F40001A7039E016217B181B785A00BB68D0182C
:101F50007B181B781B011A00203A002A03DB7968E2
:101F6000D1400C0008E02022D21A796891400A0082
:101F70003968D9400C0014437A68DA401500A3B2DE
:101F8000190000F067F81723FE18164B180000F030
:101F90007DF803003370144B1A69134B01218A43F7
:101FA0001A611723FB181B78002B0ED116217B1802
:101FB0001A787B1801321A701623FA181523FB18A9
:101FC00012781B789A42BDD300E0C046044B002231
:101FD0001A761723FB181B781800BD4607B0F0BD12
:101FE000B002002050C300000020024080B582B043
:101FF00000AFFB1D00221A700C4B1B69802213409E
:102000000DD00A4B0A4A5A60084B0A4A5A60074BDD
:102010001B698022134002D0FB1D01221A70FB1D98
:102020001B781800BD4602B080BDC04600200240AB
:1020300023016745AB89EFCD80B500AF044B1A692A
:10204000034B80210A431A6100231800BD4680BD5E
:102050000020024080B582B000AF78600A00BB1C4F
:102060001A80084B0022DA61074B1A69064B0121DE
:102070000A431A617B68BA1C12881A80C046BD46A2
:1020800002B080BDB00200200020024080B584B0C4
:1020900000AF7860FFF7AEFD0300FB600FE07B68E8
:1020A00001330CD07B68002B07D0FFF7A3FD0200A3
:1020B000FB68D31A7A689A4201D203231FE0124BBD
:1020C000DB6801221340012BE9D00F4BDB68202293
:1020D0001340202B02D10C4B2022DA600A4BDB6824
:1020E00010221340102B05D0074BDB68042213404D
:1020F000042B03D100F00AF8012300E000231800AC
:10210000BD4604B080BDC0460020024080B582B00C
:1021100000AF00237B60134BDB6810221340102BB1
:1021200009D1114BDB6902221A430F4BDA617B683C
:10213000102213437B600B4BDB6804221340042BFB
:1021400009D1094BDB6901221A43074BDA617B682D
:10215000042213437B60034B7A68DA60C046BD46B5
:1021600002B080BD00200240B0020020B0B584B0B3
:1021700000AF786039600F23FB1801221A7000232A
:10218000BB60324B1B7E012B01D102235AE02F4B47
:1021900001221A767B681B68012B16D12C4B180084
:1021A000FFF774FF031E47D100F056F80F23FC1809
:1021B000274B1800FFF76AFF03002370254B1A69AD
:1021C000244B04218A431A6136E0214B1800FFF7A3
:1021D0005DFF031E30D13B68012252421A607B68CA
:1021E0005B68BB601FE0BB68180000F04DF80F256E
:1021F0007C19174B1800FFF749FF03002370154B9C
:102200001A69144B02218A431A617B191B78002B2F
:1022100003D03B68BA681A600EE0BB688022D20027
:1022200094466344BB607B689B689A027B685B68EA
:10223000D318BA689A42D6D3044B00221A760F23D9
:10224000FB181B781800BD4604B0B0BDB0020020DA
:1022500050C300000020024080B500AF084B0022B0
:10226000DA61084B1A69074B04210A431A61054BCE
:102270001A69044B40210A431A61C046BD4680BD1D
:10228000B00200200020024080B582B000AF78602C
:102290000A4B0022DA610A4B1A69094B02210A43F0
:1022A0001A61074B7A685A61054B1A69044B402141
:1022B0000A431A61C046BD4602B080BDB00200208C
:1022C0000020024080B586B000AF786039600023FE
:1022D0007B614FE13B681B6801217A6991400A00EC
:1022E0001340FB60FB68002B00D140E13B685B685A
:1022F00003221340012B05D03B685B680322134087
:10230000022B30D17B689B683B617B695B000322B9
:102310009A401300DA433B6913403B613B68DA683B
:102320007B695B009A4013003A6913433B617B6809
:102330003A699A607B685B683B6101227B699A40DD
:102340001300DA433B6913403B613B685B681B0940
:1023500001221A407B699A4013003A6913433B619A
:102360007B683A695A603B685B6803221340032B21
:1023700017D07B68DB683B617B695B0003229A4076
:102380001300DA433B6913403B613B689A687B6901
:102390005B009A4013003A6913433B617B683A69DA
:1023A000DA603B685B6803221340022B23D17B6910
:1023B000DA087B6808329200D3583B617B690722B8
:1023C00013409B000F229A401300DA433B691340ED
:1023D0003B613B681A697B6907210B409B009A406F
:1023E00013003A6913433B617B69DA087B68083262
:1023F00092003969D1507B681B683B617B695B0047
:1024000003229A401300DA433B6913403B613B6867
:102410005B6803221A407B695B009A4013003A69AB
:1024200013433B617B683A691A603B685A68C02372
:102430009B02134000D19AE0544B9A69534B0121FF
:102440000A439A61514B9B6901221340BB60BB68F0
:102450004F4A7B699B0802339B009B583B617B6919
:10246000032213409B000F229A401300DA433B697A
:1024700013403B617A689023DB059A4213D07B6856
:10248000444A93420DD07B68434A934207D07B680D
:10249000424A934201D1032306E0052304E00223CC
:1024A00002E0012300E000237A6903210A40920040
:1024B00093403A6913433B6135497B699B0802337A
:1024C0009B003A695A50364B9B683B61FB68DA4384
:1024D0003B6913403B613B685A6880235B031340B0
:1024E00003D03A69FB6813433B612D4B3A699A600C
:1024F0002B4BDB683B61FB68DA433B6913403B6174
:102500003B685A6880239B03134003D03A69FB68F9
:1025100013433B61224B3A69DA60214B5B683B61B4
:10252000FB68DA433B6913403B613B685A68802390
:102530009B02134003D03A69FB6813433B61184B7D
:102540003A695A60164B1B683B61FB68DA433B698A
:1025500013403B613B685A6880235B02134003D001
:102560003A69FB6813433B610D4B3A691A607B691A
:1025700001337B613B681A687B69DA40131E00D027
:10258000A8E6C046C046BD4606B080BD0010024069
:10259000000001400004004800080048000C00480A
:1025A0000004014080B584B000AF78600A00BB1C15
:1025B0001A807B681B69BA1C1288134004D00F2351
:1025C000FB1801221A7003E00F23FB1800221A7077
:1025D0000F23FB181B781800BD4604B080BD000017
:1025E00080B500AF044B1A68034B802149000A43B1
:1025F0001A60C046BD4680BD0070004080B588B0FE
:1026000000AF78607B68002B01D1012301E37B6878
:102610001B680122134000D18DE0C34B5B680C2284
:102620001340042B0ED0C04B5B680C221340082BC8
:1026300016D1BD4B5A6880235B021A4080235B028F
:102640009A420DD1B84B1A6880239B02134000D1E7
:1026500070E07B685B68002B00D06BE00123D8E260
:102660007B685B68012B07D1AF4B1A68AE4B8021AA
:1026700049020A431A602FE07B685B68002B0CD18B
:10268000A94B1A68A84BA9490A401A60A64B1A68B8
:10269000A54BA7490A401A601EE07B685B68052BC2
:1026A0000ED1A14B1A68A04B8021C9020A431A60BF
:1026B0009D4B1A689C4B802149020A431A600BE02B
:1026C000994B1A68984B99490A401A60964B1A68B8
:1026D000954B97490A401A607B685B68002B14D0C1
:1026E000FFF788FA0300BB6108E0FFF783FA0200F6
:1026F000BB69D31A642B01D903238AE28A4B1A6877
:1027000080239B021340F0D015E0FFF773FA03001B
:10271000BB6108E0FFF76EFA0200BB69D31A642BB5
:1027200001D9032375E2804B1A6880239B02134072
:10273000F0D100E0C0467B681B680222134000D144
:1027400069E0794B5B680C2213400BD0764B5B68D9
:102750000C221340082B1CD1734B5A6880235B0258
:10276000134016D1704B1B680222134005D07B68C2
:10277000DB68012B01D001234BE26B4B1B68F82275
:10278000934319007B681B69DA00674B0A431A60A0
:1027900041E07B68DB68002B24D0634B1A68624BF6
:1027A00001210A431A60FFF725FA0300BB6108E024
:1027B000FFF720FA0200BB69D31A022B01D90323C9
:1027C00027E2594B1B6802221340F1D0564B1B687D
:1027D000F822934319007B681B69DA00524B0A43C5
:1027E0001A6018E0504B1A684F4B01218A431A6057
:1027F000FFF700FA0300BB6108E0FFF7FBF90200F6
:10280000BB69D31A022B01D9032302E2464B1B6892
:1028100002221340F1D17B681B680822134036D096
:102820007B68DB69002B19D03F4B5A6A3E4B012174
:102830000A435A62FFF7DEF90300BB6108E0FFF7C5
:10284000D9F90200BB69D31A022B01D90323E0E1B5
:10285000354B5B6A02221340F1D018E0324B5A6AC2
:10286000314B01218A435A62FFF7C4F90300BB616F
:1028700008E0FFF7BFF90200BB69D31A022B01D9A8
:102880000323C6E1284B5B6A02221340F1D17B6827
:102890001B680422134000D1B4E01F203B18002223
:1028A0001A70214BDA6980235B05134010D11E4B4F
:1028B000DA691D4B802149050A43DA611A4BDA694E
:1028C00080235B051340FB60FB683B1801221A70F4
:1028D000184B1A6880235B0013401AD1154B1A68F5
:1028E000144B802149000A431A60FFF783F9030063
:1028F000BB6108E0FFF77EF90200BB69D31A642BC5
:1029000001D9032385E10B4B1A6880235B00134038
:10291000F0D07B689B68012B0ED1034B1A6A024BE7
:1029200001210A431A6235E000100240FFFFFEFF5A
:10293000FFFFFBFF007000407B689B68002B0CD101
:10294000B64B1A6AB54B01218A431A62B34B1A6A15
:10295000B24B04218A431A621CE07B689B68052BFA
:102960000CD1AE4B1A6AAD4B04210A431A62AB4B31
:102970001A6AAA4B01210A431A620BE0A74B1A6A92
:10298000A64B01218A431A62A44B1A6AA34B042165
:102990008A431A627B689B68002B14D0FFF72AF9E0
:1029A0000300BB6109E0FFF725F90200BB69D31AF8
:1029B0009B4A934201D903232BE1984B1B6A0222C5
:1029C0001340F0D013E0FFF715F90300BB6109E0F5
:1029D000FFF710F90200BB69D31A914A934201D95B
:1029E000032316E18D4B1B6A02221340F0D11F23F3
:1029F000FB181B78012B05D1884BDA69874B894975
:102A00000A40DA617B681B681022134063D07B6840
:102A10005B69012B2AD1814B5A6B804B04210A43FD
:102A20005A637E4B5A6B7D4B01210A435A63FFF771
:102A3000E1F80300BB6108E0FFF7DCF80200BB69C6
:102A4000D31A022B01D90323E3E0744B5B6B022200
:102A50001340F1D0714B5B6BF822934319007B68F4
:102A60009B69DA006D4B0A435A6334E07B685B690B
:102A7000053311D1694B5A6B684B04218A435A6361
:102A8000664B5B6BF822934319007B689B69DA0005
:102A9000624B0A435A631EE0604B5A6B5F4B042142
:102AA0000A435A635D4B5A6B5C4B01218A435A635C
:102AB000FFF7A0F80300BB6108E0FFF79BF80200F6
:102AC000BB69D31A022B01D90323A2E0534B5B6BE2
:102AD00002221340F1D17B681B6A002B00D197E0E2
:102AE0004E4B5B680C221340082B00D16BE07B68D7
:102AF0001B6A022B4CD1494B1A68484B4A490A4081
:102B00001A60FFF777F80300BB6108E0FFF772F87F
:102B10000200BB69D31A022B01D9032379E03F4B92
:102B20001A6880239B041340F0D13C4BDB6A0F22D0
:102B3000934319007B68DA6A384B0A43DA62374BF1
:102B40005B683A4A134019007B689A6A7B685B6A43
:102B50001A43324B0A435A60304B1A682F4B80217C
:102B600049040A431A60FFF745F80300BB6108E017
:102B7000FFF740F80200BB69D31A022B01D90323E7
:102B800047E0264B1A6880239B041340F0D03FE0B7
:102B9000224B1A68214B24490A401A60FFF72AF891
:102BA0000300BB6108E0FFF725F80200BB69D31AF8
:102BB000022B01D903232CE0184B1A6880239B04B5
:102BC0001340F0D124E07B681B6A012B01D1012363
:102BD0001FE0124B5B687B61104BDB6A3B617A69DB
:102BE00080235B021A407B685B6A9A420ED13B6984
:102BF0000F221A407B68DB6A9A4207D17A69F02378
:102C00009B031A407B689B6A9A4201D0012300E033
:102C100000231800BD4608B080BDC0460010024029
:102C200088130000FFFFFFEFFFFFFFFEFFFFC2FF63
:102C300080B584B000AF786039607B68002B01D12B
:102C40000123B3E05B4B1B68012213403A689A42B0
:102C500011D9584B1B68012293431900554B3A6810
:102C60000A431A60534B1B68012213403A689A4288
:102C700001D001239AE07B681B680222134015D023
:102C80007B681B680422134006D04B4B5A684A4BA2
:102C9000E021C9000A435A60474B5B68F022934326
:102CA00019007B689A68444B0A435A607B681B682A
:102CB0000122134040D07B685B68012B07D13E4B5B
:102CC0001A6880239B02134014D101236EE07B68B5
:102CD0005B68022B07D1384B1A6880239B04134092
:102CE00008D1012362E0344B1B680222134001D15A
:102CF00001235BE0304B5B680322934319007B6840
:102D00005A682D4B0A435A60FEF774FF0300FB60BC
:102D100009E0FEF76FFF0200FB68D31A274A9342CF
:102D200001D9032342E0244B5B680C221A407B68E4
:102D30005B689B009A42ECD11E4B1B68012213403A
:102D40003A689A4211D21B4B1B6801229343190027
:102D5000184B3A680A431A60164B1B68012213404D
:102D60003A689A4201D0012320E07B681B68042264
:102D7000134009D0104B5B68114A134019007B685F
:102D8000DA680D4B0A435A6000F020F801000A4B44
:102D90005B681B090F2213400A4AD35C0A00DA4021
:102DA000094B1A600320FEF7DFFE00231800BD4622
:102DB00004B080BD002002400010024088130000D3
:102DC000FFF8FFFFFC6C00080C00002080B586B007
:102DD00000AF0023FB600023BB6000237B61002366
:102DE0007B6000233B61204B5B68FB60FB680C222F
:102DF0001340042B02D0082B03D02CE01B4B3B616B
:102E00002CE0FB689B0C0F221340194AD35C7B60BB
:102E1000154BDB6A0F221340164AD35CBB60FA687D
:102E200080235B02134009D0B9681048FDF77EF992
:102E300003001A007B6853437B6109E079680A004C
:102E40005201521A93019B1ADB005B181B027B6133
:102E50007B693B6102E0054B3B61C0463B69180062
:102E6000BD4606B080BDC0460010024000127A0088
:102E7000146D0008246D000880B500AF024B1B687C
:102E80001800BD4680BDC0460C00002080B500AFD4
:102E9000FFF7F2FF0100064B5B681B0A0722134095
:102EA000044AD35CD9400B001800BD4680BDC04623
:102EB000001002400C6D000880B586B000AF78604D
:102EC00000233B610023FB607B681A6880235B0260
:102ED000134000D18EE017203B1800221A705F4B80
:102EE000DA6980235B05134010D15C4BDA695B4BD8
:102EF000802149050A43DA61584BDA6980235B0572
:102F00001340BB60BB683B1801221A70544B1A680F
:102F100080235B0013401AD1514B1A68504B80211B
:102F200049000A431A60FEF765FE03003B6108E0B2
:102F3000FEF760FE02003B69D31A642B01D903231C
:102F400087E0474B1A6880235B001340F0D0434B67
:102F50001A6AC0239B001340FB60FB68002B34D02F
:102F60007B685A68C0239B001340FA689A422CD0B1
:102F70003A4B1B6A3B4A1340FB60384B1A6A374B8B
:102F8000802149020A431A62344B1A6A334B36498C
:102F90000A401A62314BFA681A62FB680122134038
:102FA00013D0FEF727FE03003B6109E0FEF722FE87
:102FB00002003B69D31A2D4A934201D9032348E00A
:102FC000264B1B6A02221340F0D0244B1B6A254A71
:102FD000134019007B685A68204B0A431A62172372
:102FE000FB181B78012B05D11C4BDA691B4B2049C0
:102FF0000A40DA617B681B680122134009D0174B35
:103000001B6B0322934319007B689A68134B0A4396
:103010001A637B681B682022134009D00F4B1B6B7F
:103020001022934319007B68DA680C4B0A431A6339
:103030007B681A688023DB00134009D0074B1B6BA9
:103040004022934319007B681A69044B0A431A63B0
:1030500000231800BD4606B080BDC04600100240E7
:1030600000700040FFFCFFFFFFFFFEFF8813000021
:10307000FFFFFFEFB0B584B000AF78600F23FB18FF
:1030800001221A707B68002B01D1012381E07B684B
:103090005B7FDBB2002B06D17B6800221A777B684E
:1030A0001800FEF771FB7B6802225A777B681B6869
:1030B000DB6810221340102B5CD07B681B68CA228F
:1030C0005A627B681B6853225A620F257C197B6801
:1030D000180000F073FA0300237028003B181B78D7
:1030E000002B2CD17B681B689A687B681B682B4976
:1030F0000A409A607B681B6899687B685A687B689D
:103100001B691A437B685B691A437B681B680A4327
:103110009A607B681B687A68D2681A617B681B6852
:1031200019697B689B681A047B681B680A431A61EB
:103130003C187B68180000F084FA030023700F230A
:10314000FB181B78002B10D17B681B681A6C7B68FE
:103150001B6813490A401A647B681B68196C7B68FA
:103160009A697B681B680A431A647B681B68FF22A4
:103170005A6203E00F23FB1800221A700F23FB187A
:103180001B78002B02D17B6801225A770F23FB1892
:103190001B781800BD4604B0B0BDC046BFFF8FFF0E
:1031A000FFFFFBFFB0B586B000AFF860B9607A6092
:1031B00000237B61FB681B7F012B01D102238EE082
:1031C000FB6801221A77FB6802225A777B68002B82
:1031D00025D1FB681B689B684022134002D1BB6865
:1031E0000022DA70BB681B78180000F053FA030065
:1031F0001C04BB685B78180000F04CFA03001B024B
:103200001C43BB689B78180000F044FA03002200BE
:103210001A43BB68DB789B0513437B6117E0FB68AF
:103220001B689B684022134002D1BB680022DA7001
:10323000BB681B781A04BB685B781B021343BA682F
:1032400092781A43BB68DB789B0513437B61FB686C
:103250001B68CA225A62FB681B6853225A621325F4
:103260007C19FB68180000F0A9F9030023702800FE
:103270003B181B78002B20D1FB681B687A691A4920
:103280000A401A60FB681B689A68FB681B6817494C
:103290000A409A60FB681B689968BB68DA68BB687B
:1032A0001B691A43FB681B680A439A603C18FB6859
:1032B000180000F0C6F9030023701323FB181B78D5
:1032C000002B02D1FB6801225A77FB681B68FF22A2
:1032D0005A62FB6800221A771323FB181B78180028
:1032E000BD4606B0B0BDC0467F7F7F00FFFFFBFF3D
:1032F00080B586B000AFF860B9607A6000237B616A
:10330000FB681B689A6ABB685A60FB681B681B698C
:103310005B045A0CBB689A60FB681B681B68224AF6
:1033200013407B617B691B0CDBB23F221340DAB296
:10333000BB681A707B691B0ADBB27F221340DAB2CA
:10334000BB685A707B69DBB27F221340DAB2BB687C
:103350009A707B699B0DDBB201221340DAB2BB6825
:10336000DA707B68002B1AD1BB681B78180000F05C
:10337000B2F903001A00BB681A70BB685B781800CA
:1033800000F0A9F903001A00BB685A70BB689B786B
:10339000180000F0A0F903001A00BB689A7000231F
:1033A0001800BD4606B080BD7F7F7F00B0B586B0F7
:1033B00000AFF860B9607A6000237B61FB681B7F17
:1033C000012B01D102237AE0FB6801221A77FB6806
:1033D00002225A777B68002B0ED1BB685B781A00FB
:1033E0001023134008D0BB685B7810229343DBB2F4
:1033F0000A33DAB2BB685A707B68002B1CD1BB68F9
:10340000DB78180000F046F903001C04BB685B7809
:10341000180000F03FF903001B021C43BB689B78B7
:10342000180000F037F9030022001A43BB681B782C
:103430005B0313437B610EE0BB68DB781A04BB6857
:103440005B781B021343BA6892781A43BB681B78F7
:103450005B0313437B61FB681B68CA225A62FB68EB
:103460001B6853225A6213257C19FB68180000F070
:10347000A5F80300237028003B181B78002B0CD103
:10348000FB681B687A6910490A405A603C18FB685F
:10349000180000F0D6F8030023701323FB181B78E4
:1034A000002B02D1FB6801225A77FB681B68FF22C0
:1034B0005A62FB6800221A771323FB181B78180046
:1034C000BD4606B0B0BDC0463FFFFF0080B586B028
:1034D00000AFF860B9607A6000237B61FB681B680D
:1034E0005B68214A13407B617B691B0CDAB2BB68C5
:1034F000DA707B691B0ADBB21F221340DAB2BB68A9
:103500005A707B69DBB23F221340DAB2BB689A7013
:103510007B695B0BDBB207221340DAB2BB681A701F
:103520007B68002B1AD1BB68DB78180000F0D3F859
:1035300003001A00BB68DA70BB685B78180000F003
:10354000CAF803001A00BB685A70BB689B78180061
:1035500000F0C1F803001A00BB689A70002318003D
:10356000BD4606B080BDC0463FFFFF0080B584B0B9
:1035700000AF78600023FB607B681B680E4ADA604E
:10358000FEF738FB0300FB600AE0FEF733FB0200A6
:10359000FB68D21AFA239B009A4201D9032306E062
:1035A0007B681B68DB6820221340EED000231800E4
:1035B000BD4604B080BDC0465979010080B584B0D5
:1035C00000AF78600023BB600F23FB1800221A7045
:1035D0007B681B68DB68402213402BD17B681B682B
:1035E000DA687B681B6880210A43DA60FEF702FB19
:1035F0000300BB6013E0FEF7FDFA0200BB68D21ABD
:103600000F203B18391809781970FA239B009A4249
:1036100005D97B6804225A773B1801221A707B680F
:103620001B68DB684022134004D10F23FB181B7872
:10363000012BE0D10F23FB181B781800BD4604B006
:1036400080BD90B585B000AF78600F243B19002293
:103650001A707B681B68DA687B681B6880218A4364
:10366000DA607B681B689B68202213400BD17B6863
:103670001800FFF77BFF031E05D07B6804225A77F2
:103680003B1901221A700F23FB181B781800BD4646
:1036900005B090BD80B584B000AF0200FB1D1A706C
:1036A0000023FB6007E0FB680133FB60FB1DFA1D94
:1036B00012780A3A1A70FB1D1B78092BF3D8FB68A5
:1036C000DBB21B01DAB2FB1D1B781343DBB218001F
:1036D000BD4604B080BD80B584B000AF0200FB1DC4
:1036E0001A700023FB60FB1D1B781B09DBB21A005C
:1036F00013009B009B185B00FB60FB68DAB2FB1DAC
:103700001B780F210B40DBB2D318DBB21800BD468B
:1037100004B080BD80B582B000AF78607B68002BBC
:1037200001D1012342E07B683D229B5CDBB2002B90
:1037300007D17B683C22002199547B681800FEF772
:103740003BF87B683D22022199547B681A687B68AC
:1037500004331900100000F061FA7B684622012151
:1037600099547B683E22012199547B683F220121B4
:1037700099547B684022012199547B6841220121A0
:1037800099547B684222012199547B68432201218C
:1037900099547B684422012199547B684522012178
:1037A00099547B683D220121995400231800BD469D
:1037B00002B080BD80B584B000AF78607B683D22E8
:1037C0009B5CDBB2012B01D001233BE07B683D22F7
:1037D000022199547B681B68DA687B681B680121A9
:1037E0000A43DA607B681B68184A93420FD07B68F3
:1037F0001A688023DB059A4209D07B681B68144A4B
:10380000934204D07B681B68124A934211D17B68B3
:103810001B689B6807221340FB60FB68062B10D0D7
:103820007B681B681A687B681B6801210A431A6061
:1038300007E07B681B681A687B681B6801210A43E4
:103840001A6000231800BD4604B080BD002C014062
:10385000000400400040014080B584B000AF7860B3
:103860007B681B68DB68FB607B681B681B69BB604F
:10387000BB680222134021D0FB68022213401DD0F6
:103880007B681B68032252421A617B6801221A7707
:103890007B681B689B690322134004D07B68180077
:1038A00000F0A4F907E07B68180000F097F97B6846
:1038B000180000F0A3F97B6800221A77BB68042285
:1038C000134022D0FB68042213401ED07B681B6883
:1038D000052252421A617B6802221A777B681B68B4
:1038E0009A69C0239B00134004D07B68180000F045
:1038F0007DF907E07B68180000F070F97B6818001C
:1039000000F07CF97B6800221A77BB68082213401C
:1039100021D0FB68082213401DD07B681B68092258
:1039200052421A617B6804221A777B681B68DB6944
:103930000322134004D07B68180000F057F907E019
:103940007B68180000F04AF97B68180000F056F90F
:103950007B6800221A77BB681022134022D0FB68D4
:10396000102213401ED07B681B68112252421A613C
:103970007B6808221A777B681B68DA69C0239B0082
:10398000134004D07B68180000F030F907E07B6832
:10399000180000F023F97B68180000F02FF97B680D
:1039A00000221A77BB68012213400CD0FB68012269
:1039B000134008D07B681B68022252421A617B6860
:1039C0001800FDF70DF9BB68802213400CD0FB688E
:1039D0008022134008D07B681B68812252421A6102
:1039E0007B68180000F0A8FABB68402213400CD096
:1039F000FB684022134008D07B681B68412252427A
:103A00001A617B68180000F001F9BB68202213409E
:103A10000CD0FB682022134008D07B681B68212251
:103A200052421A617B68180000F07EFAC046BD461B
:103A300004B080BD80B584B000AF786039600F23DA
:103A4000FB1800221A707B683C229B5C012B01D181
:103A50000223BCE07B683C22012199547B683D2213
:103A6000022199547B681B689B68BB60BB68772206
:103A70009343BB60BB68584A1340BB607B681B68BC
:103A8000BA689A603B681B6880229201934240D0DA
:103A900080229201934200D988E080225201934211
:103AA00000D188E080225201934200D97EE0702B41
:103AB00018D000D97AE0602B4FD000D976E0502B97
:103AC0003BD000D972E0402B57D000D96EE0302BAC
:103AD00063D06BD8202B60D068D8002B5DD0102B22
:103AE0005BD063E07B6818683B6899683B685A68FC
:103AF0003B68DB6800F09AF97B681B689B68BB60D9
:103B0000BB6877221343BB607B681B68BA689A6006
:103B100052E07B6818683B6899683B685A683B6864
:103B2000DB6800F083F97B681B689A687B681B6818
:103B30008021C9010A439A603EE07B6818683B68AF
:103B400059683B68DB681A0000F0F6F87B681B6870
:103B50005021180000F050F92EE07B6818683B688F
:103B600059683B68DB681A0000F014F97B681B6831
:103B70006021180000F040F91EE07B6818683B687F
:103B800059683B68DB681A0000F0D6F87B681B6850
:103B90004021180000F030F90EE07B681A683B689D
:103BA0001B681900100000F027F905E00F23FB182F
:103BB00001221A7000E0C0467B683D220121995421
:103BC0007B683C22002199540F23FB181B781800B6
:103BD000BD4604B080BDC046FF00FFFF80B582B087
:103BE00000AF7860C046BD4602B080BD80B582B0EF
:103BF00000AF7860C046BD4602B080BD80B582B0DF
:103C000000AF7860C046BD4602B080BD80B582B0CE
:103C100000AF7860C046BD4602B080BD80B584B0BC
:103C200000AF786039607B681B68FB607B683B4A4B
:103C3000934208D07A688023DB059A4203D07B68E0
:103C4000374A934208D1FB6870229343FB603B687C
:103C50005B68FA681343FB607B68304A934218D074
:103C60007A688023DB059A4213D07B682C4A934202
:103C70000FD07B682B4A93420BD07B682A4A934231
:103C800007D07B68294A934203D07B68284A934235
:103C900008D1FB68274A1340FB603B68DB68FA6881
:103CA0001343FB60FB68802293431A003B685B6907
:103CB0001343FB607B68FA681A603B689A687B680C
:103CC000DA623B681A687B689A627B68134A93429F
:103CD0000BD07B68144A934207D07B68134A934207
:103CE00003D07B68124A934203D13B681A697B6810
:103CF0001A637B6801225A617B681B6901221340A9
:103D0000012B06D17B681B69012293431A007B6853
:103D10001A61C046BD4604B080BDC046002C0140BB
:103D200000040040002000400040014000440140E9
:103D300000480140FFFCFFFF80B586B000AFF8608F
:103D4000B9607A60FB681B6A7B61FB681B6A0122B1
:103D500093431A00FB681A62FB689B693B613B69ED
:103D6000F02293433B617B681B013A6913433B613B
:103D70007B690A2293437B617A69BB6813437B6149
:103D8000FB683A699A61FB687A691A62C046BD4667
:103D900006B080BD80B586B000AFF860B9607A60CB
:103DA000FB681B6A7B61FB681B6A102293431A0045
:103DB000FB681A62FB689B693B613B690D4A1340D3
:103DC0003B617B681B033A6913433B617B69A0221B
:103DD00093437B61BB681B017A6913437B61FB687A
:103DE0003A699A61FB687A691A62C046BD4606B0B4
:103DF00080BDC046FF0FFFFF80B584B000AF786084
:103E000039607B689B68FB60FB6870229343FB60B2
:103E10003A68FB68134307221343FB607B68FA6828
:103E20009A60C046BD4604B080BD000080B586B033
:103E300000AFF860B9607A603B60FB689B687B61AB
:103E40007B69094A13407B613B681A027B681A430D
:103E5000BB6813437A6913437B61FB687A699A6094
:103E6000C046BD4606B080BDFF00FFFF80B584B0F0
:103E700000AF786039607B683C229B5C012B01D1EC
:103E8000022347E07B683C22012199547B683D2254
:103E9000022199547B681B685B68FB607B681B6828
:103EA0009B68BB60FB6870229343FB603B681B68A8
:103EB000FA681343FB607B681B68FA685A607B688A
:103EC0001B68164A93420FD07B681A688023DB0573
:103ED0009A4209D07B681B68114A934204D07B68E0
:103EE0001B68104A93420CD1BB6880229343BB608D
:103EF0003B685B68BA681343BB607B681B68BA6841
:103F00009A607B683D22012199547B683C22002104
:103F1000995400231800BD4604B080BD002C014018
:103F2000000400400040014080B582B000AF7860DE
:103F3000C046BD4602B080BD80B582B000AF78609B
:103F4000C046BD4602B080BD80B582B000AF78608B
:103F50007B68002B01D1012344E07B68DB6F002BE1
:103F600007D17B687822002199547B681800FDF7FF
:103F700069FC7B682422DA677B681B681A687B68A7
:103F80001B6801218A431A607B685B6A002B03D09F
:103F90007B68180000F060FD7B68180000F01CFCD6
:103FA0000300012B01D101231CE07B681B685A68C8
:103FB0007B681B680D490A405A607B681B689A68D9
:103FC0007B681B682A218A439A607B681B681A6891
:103FD0007B681B6801210A431A607B68180000F0A7
:103FE000EFFD03001800BD4602B080BDFFB7FFFF24
:103FF00080B58AB002AFF860B9603B60BB1D1A8023
:10400000FB68DB6F202B00D08DE0BB68002B03D05A
:10401000BB1D1B88002B01D1012385E0FB689A683A
:1040200080235B019A4209D1FB681B69002B05D1F3
:10403000BB680122134001D0012375E0FB68842294
:1040400000219950FB682122DA67FDF7D3FD0300B8
:104050007B61FB68BA1D502112885A52FB68BA1D59
:10406000522112885A52FB689A6880235B019A4257
:1040700008D1FB681B69002B04D10023FB61BB68DE
:10408000BB6103E0BB68FB610023BB6130E07A6980
:10409000F8683B68009313000022802100F038FE8E
:1040A000031E04D0FB682022DA6703233CE0FB698F
:1040B000002B0BD1BB691A88FB681B68D205D20D97
:1040C00092B21A85BB690233BB6108E0FB691A78BA
:1040D000FB681B6892B21A85FB690133FB61FB68C0
:1040E00052229B5A9BB2013B99B2FB6852229952D1
:1040F000FB6852229B5A9BB2002BC8D17A69F868A0
:104100003B68009313000022402100F001FE031ED3
:1041100004D0FB682022DA67032305E0FB68202235
:10412000DA67002300E002231800BD4608B080BD16
:1041300080B588B000AFF860B960BB1D1A80FB681D
:1041400080229B58202B45D1BB68002B03D0BB1D80
:104150001B88002B01D101233DE0FB689A68802376
:104160005B019A4209D1FB681B69002B05D1BB6832
:104170000122134001D001232DE0FB6800221A66C2
:10418000FB681B685A6880231B04134019D0EFF3A7
:1041900010833B613B69FB6101237B617B6983F396
:1041A0001088C046FB681B681A68FB681B68802182
:1041B000C9040A431A60FB69BB61BB6983F31088B9
:1041C000C046BB1D1A88B968FB68180000F010FED5
:1041D000030000E002231800BD4608B080BD0000C7
:1041E00090B5ABB000AF78607B681B68DB69A42238
:1041F000B9180B607B681B681B68A02039180B601E
:104200007B681B689B689C2179180B601100BB18A8
:104210001B68994A13409822BC182360BB181B687E
:10422000002B14D17B181B68202213400FD03B18A1
:104230001B68202213400AD07B689B6E002B00D1A4
:104240009EE27B689B6E7A681000984798E29823FC
:10425000FB181B68002B00D114E19C23FB181B6882
:104260000122134006D1A023FB181B68834A134088
:1042700000D107E1A423FB181B680122134012D0D0
:10428000A023FB181A6880235B0013400BD07B68C7
:104290001B6801221A627B6884229B5801221A4300
:1042A0007B6884215A50A423FB181B680222134008
:1042B00011D09C23FB181B68012213400BD07B6894
:1042C0001B6802221A627B6884229B5804221A43CC
:1042D0007B6884215A50A423FB181B6804221340D6
:1042E00011D09C23FB181B68012213400BD07B6864
:1042F0001B6804221A627B6884229B5802221A439C
:104300007B6884215A50A423FB181B6808221340A1
:1043100017D0A023FB181B682022134005D19C2333
:10432000FB181B68012213400BD07B681B68082216
:104330001A627B6884229B5808221A437B68842176
:104340005A50A423FB181A6880231B01134013D072
:10435000A023FB181A688023DB0413400CD07B6871
:104360001B68802212011A627B6884229B582022DB
:104370001A437B6884215A507B6884229B58002B07
:1043800000D1FFE1A423FB181B68202213400ED0AC
:10439000A023FB181B682022134008D07B689B6E6B
:1043A000002B04D07B689B6E7A68100098477B686E
:1043B00084229B5894217A1813607B681B689B6841
:1043C00040221340402B04D07B181B682822134046
:1043D00047D07B68180000F0C1FD7B681B689B68B4
:1043E00040221340402B37D1EFF310833B663B6EE6
:1043F00090203A18136001237B667B6E83F310884C
:10440000C0467B681B689A687B681B6840218A43AA
:104410009A603B181B68BB66BB6E83F31088C0466E
:104420007B685B6F002B12D07B685B6F144A5A630A
:104430007B685B6F1800FDF7FDFC031E1AD07B68DC
:104440005B6F5A6B7B685B6F1800904712E07B686C
:10445000180000F0ADF90DE07B68180000F0A8F935
:1044600008E07B68180000F0A3F97B688422002133
:10447000995087E1C04685E10F0800002001000443
:10448000255000087B681B6E012B00D039E1A42366
:10449000FB181B681022134000D132E1A023FB1847
:1044A0001B681022134000D12BE17B681B6810228F
:1044B0001A627B681B689B6840221340402B00D027
:1044C0009FE07B685B6F1B685A687E217B181A80AF
:1044D0007B181B88002B00D156E17B6858229B5A21
:1044E0007A1812889A4200D34EE17B687A185A21D2
:1044F00012885A527B685B6F9B69202B6FD0EFF359
:1045000010833B633B6BBB6701237B637B6B83F354
:104510001088C0467B681B681A687B681B689E49C8
:104520000A401A60BB6FBB63BB6B83F31088C04645
:10453000EFF31083FB63FB6B7B6701233B643B6CF6
:1045400083F31088C0467B681B689A687B681B6889
:1045500001218A439A607B6F7B647B6C83F31088B4
:10456000C046EFF31083BB64BB6C3B670123FB6465
:10457000FB6C83F31088C0467B681B689A687B6875
:104580001B6840218A439A603B6F3B653B6D83F318
:104590001088C0467B688022202199507B680022C9
:1045A0001A66EFF310837B657B6DFB660123BB65A9
:1045B000BB6D83F31088C0467B681B681A687B68F4
:1045C0001B6810218A431A60FB6EFB65FB6D83F349
:1045D0001088C0467B685B6F1800FDF7F3FB7B68B3
:1045E00002225A667B6858229A5A7B685A215B5A83
:1045F0009BB2D31A9AB27B681100180000F0E0F861
:10460000C2E07B685822995A7B685A229B5A9AB218
:104610008E203B188A1A1A807B685A229B5A9BB2BA
:10462000002B00D1B2E03B181B88002B00D1ADE07D
:10463000EFF31083FB60FB6888243A1913600123B1
:104640003B613B6983F31088C0467B681B681A682E
:104650007B681B6851490A401A603B191B687B61E3
:104660007B6983F31088C046EFF31083BB61BB699D
:1046700084243A1913600123FB61FB6983F31088DA
:10468000C0467B681B689A687B681B6801218A4367
:104690009A603B191B683B623B6A83F31088C046F3
:1046A0007B688022202199507B6800221A667B68F3
:1046B00000229A66EFF310837B627B6A80243A19AA
:1046C00013600123BB62BB6A83F31088C0467B681A
:1046D0001B681A687B681B6810218A431A603B19A3
:1046E0001B68FB62FB6A83F31088C0467B6802226A
:1046F0005A663B181A887B681100180000F060F8B1
:1047000044E0A423FB181A6880235B03134010D0F5
:104710009C23FB181A688023DB03134009D07B68B5
:104720001B68802252031A627B68180000F074FE36
:104730002FE0A423FB181B68802213400FD0A02376
:10474000FB181B688022134009D07B68DB6E002BAE
:104750001ED07B68DB6E7A681000984718E0A423AF
:10476000FB181B684022134013D0A023FB181B68C2
:10477000402213400DD07B68180000F06AFC08E06E
:10478000C04606E0C04604E0C04602E0C04600E085
:10479000C046BD462BB090BDFFFEFFFFDFFEFFFF12
:1047A00080B582B000AF7860C046BD4602B080BD23
:1047B00080B582B000AF7860C046BD4602B080BD13
:1047C00080B582B000AF78600A00BB1C1A80C0467A
:1047D000BD4602B080BD000080B588B000AF7860F3
:1047E0001E23FB1800221A707B689A687B681B697D
:1047F0001A437B685B691A437B68DB6913437B61FF
:104800007B681B681B688D4A134019007B681B6816
:104810007A690A431A607B681B685B68884A1340A0
:1048200019007B68DA687B681B680A435A607B68FA
:104830009B697B617B681B6A7A6913437B617B6838
:104840001B689B687F4A134019007B681B687A6964
:104850000A439A607B681B687B4A934227D17B4B53
:104860001B6B03221340032B0DD01BD8022B14D03B
:1048700018D8002B02D0012B0AD013E01F23FB18FD
:1048800000221A7021E01F23FB1802221A701CE07C
:104890001F23FB1804221A7017E01F23FB1808229D
:1048A0001A7012E01F23FB1810221A700DE07B68AB
:1048B0001B68674A934204D11F23FB1800221A7019
:1048C00003E01F23FB1810221A707B68DA6980232B
:1048D0001B029A425CD11F23FB181B78082B15D0B2
:1048E00018DC042B0DD015DC002B02D0022B05D0D8
:1048F00010E0FEF7CBFA0300BB6112E0554BBB6141
:104900000FE0FEF763FA0300BB610AE080231B029D
:10491000BB6106E00023BB611E23FB1801221A7055
:10492000C046BB69002B00D17AE0BB695A007B68A6
:104930005B685B08D2187B685B6819001000FBF7A6
:10494000F5FB03003B613B690F2B1CD93A698023BF
:104950005B029A4217D23B699AB20E203B180F2194
:104960008A431A803B695B089BB20722134099B2C5
:104970003B183A1812880A431A807B681B683A1859
:104980001288DA604CE01E23FB1801221A7047E0FF
:104990001F23FB181B78082B15D018DC042B0DD017
:1049A00015DC002B02D0022B05D010E0FEF76EFACA
:1049B0000300BB6112E0274BBB610FE0FEF706FA74
:1049C0000300BB610AE080231B02BB6106E00023F9
:1049D000BB611E23FB1801221A70C046BB69002B65
:1049E0001ED07B685B685A08BB69D2187B685B681D
:1049F00019001000FBF79AFB03003B613B690F2B8A
:104A00000AD93A6980235B029A4205D23B699AB27D
:104A10007B681B68DA6003E01E23FB1801221A7012
:104A20007B6800229A667B680022DA661E23FB18E8
:104A30001B781800BD4608B080BDC046F369FFFF73
:104A4000FFCFFFFFFFF4FFFF0038014000100240DE
:104A50000044004000127A0080B582B000AF786058
:104A60007B685B6A082213400BD07B681B685B681D
:104A70004A4A134019007B685A6B7B681B680A43DB
:104A80005A607B685B6A012213400BD07B681B680D
:104A90005B68434A134019007B689A6A7B681B680D
:104AA0000A435A607B685B6A022213400BD07B6822
:104AB0001B685B683B4A134019007B68DA6A7B68B5
:104AC0001B680A435A607B685B6A042213400BD060
:104AD0007B681B685B68344A134019007B681A6B5B
:104AE0007B681B680A435A607B685B6A102213402C
:104AF0000BD07B681B689B682C4A134019007B68AD
:104B00009A6B7B681B680A439A607B685B6A202209
:104B100013400BD07B681B689B68254A1340190023
:104B20007B68DA6B7B681B680A439A607B685B6A08
:104B3000402213401DD07B681B685B681D4A1340F0
:104B400019007B681A6C7B681B680A435A607B6893
:104B50001A6C80235B039A420BD17B681B685B68ED
:104B6000154A134019007B685A6C7B681B680A431E
:104B70005A607B685B6A802213400BD07B681B689D
:104B80005B680E4A134019007B689A6C7B681B684F
:104B90000A435A60C046BD4602B080BDFF7FFFFF9A
:104BA000FFFFFDFFFFFFFEFFFFFFFBFFFFEFFFFF2C
:104BB000FFDFFFFFFFFFEFFFFFFF9FFFFFFFF7FF9D
:104BC00080B592B002AF78607B6884220021995052
:104BD000FDF710F80300FB637B681B681B68082265
:104BE0001340082B2CD1FB6B802291037868464A36
:104BF0000092002200F08CF8031E21D0EFF3108306
:104C00007B627B6ABB630123BB62BB6A83F3108850
:104C1000C0467B681B681A687B681B6880218A43D2
:104C20001A60BB6BFB62FB6A83F31088C0467B682B
:104C30002022DA677B6878220021995403235FE001
:104C40007B681B681B6804221340042B46D1FB6B56
:104C50008022D10378682C4A0092002200F058F894
:104C6000031E3BD0EFF31083FB60FB687B630123E3
:104C70003B613B6983F31088C0467B681B681A68F8
:104C80007B681B6821490A401A607B6B7B617B69EA
:104C900083F31088C046EFF31083BB61BB693B63AD
:104CA0000123FB61FB6983F31088C0467B681B68A6
:104CB0009A687B681B6801218A439A603B6B3B6260
:104CC0003B6A83F31088C0467B688022202199507C
:104CD0007B68782200219954032311E07B6820220D
:104CE000DA677B688022202199507B6800221A664F
:104CF0007B6800225A667B68782200219954002341
:104D00001800BD4610B080BDFFFFFF01DFFEFFFFB2
:104D100080B584B000AFF860B9603B60FB1D1A70CD
:104D200051E0BB6901334ED0FCF764FF02003B68E1
:104D3000D31ABA699A4202D3BB69002B01D103236B
:104D400051E0FB681B681B68042213403BD0BB6822
:104D5000802B38D0BB68402B35D0FB681B68DB69E3
:104D600008221340082B11D1FB681B6808221A6225
:104D7000FB68180000F0F2F8FB68842208219950C3
:104D8000FB6878220021995401232CE0FB681B6802
:104D9000DA6980231B011A4080231B019A4212D139
:104DA000FB681B68802212011A62FB68180000F081
:104DB000D5F8FB68842220219950FB6878220021D5
:104DC000995403230FE0FB681B68DB69BA68134042
:104DD000BA68D31A5A425341DBB21A00FB1D1B7842
:104DE0009A429ED000231800BD4604B080BD00004A
:104DF00080B590B000AFF860B960BB1D1A80FB6849
:104E0000BA685A65FB68BA1D582112885A52FB6865
:104E1000BA1D5A2112885A52FB6800229A66FB6812
:104E20009A6880235B019A420DD1FB681B69002BB5
:104E300004D1FB685C22464999521AE0FB685C2267
:104E4000FF21995215E0FB689B68002B0DD1FB6890
:104E50001B69002B04D1FB685C22FF21995208E0FA
:104E6000FB685C227F21995203E0FB685C220021F1
:104E70009952FB68842200219950FB6880222221EC
:104E80009950EFF31083BB62BB6AFB630123FB62A3
:104E9000FB6A83F31088C046FB681B689A68FB684E
:104EA0001B6801210A439A60FB6B3B633B6B83F3F6
:104EB0001088C046FB689A6880235B019A4207D13C
:104EC000FB681B69002B03D1FB68224A9A6602E04B
:104ED000FB68214A9A66FB681B69002B19D0EFF327
:104EE0001083FB61FB697B6301233B623B6A83F3B5
:104EF0001088C046FB681B681A68FB681B68902115
:104F000049000A431A607B6B7B627B6A83F31088DB
:104F100018E0EFF310833B613B69BB6301237B61C6
:104F20007B6983F31088C046FB681B681A68FB68BE
:104F30001B6820210A431A60BB6BBB61BB6983F30A
:104F40001088C04600231800BD4610B080BDC04682
:104F5000FF01000061520008A950000880B58EB022
:104F600000AF7860EFF310837B617B697B63012383
:104F7000BB61BB6983F31088C0467B681B681A68F5
:104F80007B681B6826490A401A607B6BFB61FB69E2
:104F900083F31088C046EFF310833B623B6A3B63A8
:104FA00001237B627B6A83F31088C0467B681B68A1
:104FB0009A687B681B6801218A439A603B6BBB62DD
:104FC000BB6A83F31088C0467B681B6E012B18D127
:104FD000EFF31083BB60BB68FB620123FB60FB68DF
:104FE00083F31088C0467B681B681A687B681B685F
:104FF00010218A431A60FB6A3B613B6983F3108886
:10500000C0467B688022202199507B6800221A6666
:105010007B6800229A66C046BD460EB080BDC04681
:10502000DFFEFFFF80B584B000AF78607B685B6A0D
:10503000FB60FB685A2200219952FB685222002132
:105040009952FB681800FFF7B3FBC046BD4604B099
:1050500080BD80B586B000AF7860EFF31083BB6091
:10506000BB687B610123FB60FB6883F31088C0464B
:105070007B681B681A687B681B6840218A431A603A
:105080007B693B613B6983F31088C0467B682022C3
:10509000DA677B680022DA667B681800FFF780FB1E
:1050A000C046BD4606B080BD80B594B000AF786004
:1050B0004E203B187A685C21525A1A807B68802205
:1050C0009B58222B00D0BAE07B681A684C217B18D1
:1050D000928C1A807B181B88DAB23B181B88D9B2D5
:1050E0007B685B6D0A40D2B21A707B685B6D5A1C9C
:1050F0007B685A657B685A229B5A9BB2013B99B2E6
:105100007B685A2299527B685A229B5A9BB2002B89
:1051100000D09CE0EFF310837B627B6ABB640123C9
:10512000BB62BB6A83F31088C0467B681B681A6841
:105130007B681B6848490A401A60BB6CFB62FB6ACB
:1051400083F31088C046EFF310833B633B6B7B64B3
:1051500001237B637B6B83F31088C0467B681B68ED
:105160009A687B681B6801218A439A607B6CBB63E9
:10517000BB6B83F31088C0467B6880222021995046
:105180007B6800229A667B6800225A667B681B68EF
:105190005A6880231B04134018D0EFF31083BB61BF
:1051A000BB693B640123FB61FB6983F31088C04644
:1051B0007B681B681A687B681B6828490A401A606C
:1051C0003B6C3B623B6A83F31088C0467B681B6E76
:1051D000012B2FD17B6800221A66EFF31083FB604E
:1051E000FB68FB6301233B613B6983F31088C04686
:1051F0007B681B681A687B681B6810218A431A60E9
:10520000FB6B7B617B6983F31088C0467B681B68FE
:10521000DB6910221340102B03D17B681B6810221E
:105220001A627B6858229A5A7B6811001800FFF7AF
:10523000C7FA0CE07B681800FBF702FE07E07B680A
:105240001B689A697B681B6808210A439A61C046FB
:10525000BD4614B080BDC046DFFEFFFFFFFFFFFB71
:1052600080B594B000AF78604E203B187A685C211E
:10527000525A1A807B6880229B58222B00D0BAE0B9
:105280007B681A684C217B18928C1A807B685B6D56
:10529000BB647B183A181B88128813409AB2BB6C07
:1052A0001A807B685B6D9A1C7B685A657B685A2202
:1052B0009B5A9BB2013B99B27B685A2299527B68F8
:1052C0005A229B5A9BB2002B00D09CE0EFF3108334
:1052D0003B623B6A7B6401237B627B6A83F31088B9
:1052E000C0467B681B681A687B681B6848490A408F
:1052F0001A607B6CBB62BB6A83F31088C046EFF315
:105300001083FB62FB6A3B6401233B633B6B83F3CB
:105310001088C0467B681B689A687B681B680121FF
:105320008A439A603B6C7B637B6B83F31088C04637
:105330007B688022202199507B6800229A667B68D6
:1053400000225A667B681B685A6880231B0413403E
:1053500018D0EFF310837B617B69FB630123BB6192
:10536000BB6983F31088C0467B681B681A687B683A
:105370001B6828490A401A60FB6BFB61FB6983F3D9
:105380001088C0467B681B6E012B2FD17B680022E2
:105390001A66EFF31083BB60BB68BB630123FB603D
:1053A000FB6883F31088C0467B681B681A687B68BB
:1053B0001B6810218A431A60BB6B3B613B6983F316
:1053C0001088C0467B681B68DB6910221340102BD5
:1053D00003D17B681B6810221A627B6858229A5A94
:1053E0007B6811001800FFF7EBF90CE07B681800F0
:1053F000FBF726FD07E07B681B689A697B681B68E2
:1054000008210A439A61C046BD4614B080BDC0461B
:10541000DFFEFFFFFFFFFFFB80B582B000AF7860CB
:10542000C046BD4602B080BD10B50A22002100F082
:1054300087F810BDF0B587B01E000590019102926B
:10544000012B48D00B00242E45D83B4A0821944616
:105450001A00604614780133005D1D0007000F40FC
:105460000842F5D12D2C3DD101271C78951C002E2A
:105470005ED0102E09D1302C07D120222B789343F7
:10548000582B50D110266C7802352C4B3100FB186C
:1054900018000393FAF7D0FE0022049101218446FC
:1054A000100049422300303B092B03D9113B192B33
:1054B0001DD80A339E421EDD541C09D00A008445C3
:1054C00006D302D1049C9C4202DB012270431818CF
:1054D0002C780135E6E700F0B9FA162303600020C6
:1054E00007B0F0BD2B2CC2D11C78951CBFE7230060
:1054F000613B192BDDD9531C09D12223059A03984E
:105500001360029B002BEBD06B1E019307E0002F72
:1055100000D04042029B002BE2D0002AF4D1029B33
:10552000019A1A60DCE73024002EAED10836ACE7D1
:10553000302CA2D00A26A8E7356D0008FFFFFF7FB8
:1055400010B5044C13000A0001002068FFF772FF39
:1055500010BDC04670000020F0B587B002923E4AF0
:105560001E0001910B009446082105901A00604628
:1055700014780133005D1D0007000F400842F5D18B
:105580002D2C3DD101271C78951C002E5FD0102EAC
:1055900009D1302C07D120222B789343582B51D19D
:1055A00010266C780235012031004042FAF7BEFD2A
:1055B0000390012031004042FAF73EFE0023012211
:1055C000049101211800944649422200303A092AE8
:1055D00003D9113A192A18D80A32964219DD5C1CEF
:1055E0000BD0039C0B00844207D303D1049C0B0017
:1055F000944202DB6346704310182C780135E4E7CF
:105600002B2CC2D11C78951CBFE72200613A192AC5
:10561000E2D95A1C08D12222059918000A60029A80
:10562000002A09D107B0F0BD002F00D04042029AF5
:10563000002AF7D0002B01D06B1E0193029B019A28
:105640001A60EFE73024002EADD10836ABE7302CDE
:10565000A1D00A26A7E7C046356D000810B5044C56
:1056600013000A0001002068FFF776FF10BDC04656
:1056700070000020002310B50400036043608360C5
:10568000818143661900C2810361436183610822FD
:105690005C3000F021F9054B24626362044BA36285
:1056A000044BE362044B236310BDC046415800081D
:1056B00069580008A1580008CD58000810B5034AE1
:1056C0000349044800F06CF810BDC04618000020E3
:1056D000C96300082400002041680B4B10B504008A
:1056E000994201D000F070FEA168084B994202D0A7
:1056F000200000F069FEE168054B994202D02000CD
:1057000000F062FE10BDC046D00200203803002029
:10571000A003002010B5094B094A04211A6009486A
:105720000022FFF7A7FF012209210748FFF7A2FF88
:10573000022212210548FFF79DFF10BD080400203A
:10574000BD560008D002002038030020A00300202E
:1057500010B5024800F0A4F910BDC04611040020A5
:1057600010B5024800F09DF910BDC046110400209C
:1057700010B50400FFF7ECFF236A002B02D0FFF7FF
:10578000EFFF10BD044B2362044B1B68002BF6D1C6
:10579000FFF7C0FFF3E7C046D95600080804002011
:1057A000F7B51400002600900191A5686768013FD5
:1057B00004D52468002CF8D13000FEBDAB89012B44
:1057C00008D90E22AB5E013304D029000098019B5A
:1057D000984706436835EAE70CB430B5174B0C0020
:1057E0001D689DB0002908DA8B2301202B60404200
:1057F0001DB030BC08BC02B0184782236A469B002B
:105800009382002302900690994200D04B1E04938D
:10581000079301236A465B42D382280021AB209A7A
:1058200002A9019300F0C6FA431C01DA8B232B6016
:10583000002CDDD00022029B1A70D9E770000020F6
:1058400070B50C000E25495F00F0D8F8002803DB86
:10585000636D1B18636570BDA389024A1340A38161
:10586000F9E7C046FFEFFFFFF8B51F008B89050081
:105870000C001600DB0505D50E23C95E00220223AD
:1058800000F0A8F8A389054A28001340A38132003C
:105890000E23E15E3B0000F0C5F8F8BDFFEFFFFF0F
:1058A00070B50C000E25495F00F094F8A389421CE6
:1058B00003D1054A1340A38170BD802252011343D6
:1058C000A3816065F8E7C046FFEFFFFF10B50E2328
:1058D000C95E00F06DF810BD03008218934200D13C
:1058E000704719700133F9E7F8B5164B05001F68CA
:1058F0000E007C6C002C1DD1502000F03BF9021EE4
:10590000786404D15B21104B104800F0CBF80460A0
:1059100044608460C4600461446184618462C462E0
:10592000046344638463C463046444648464C4643B
:1059300004774462310028007A6C012300F008F8F3
:10594000F8BDC04670000020356E00084C6E00089F
:10595000F0B5002802D11068002813D00400200000
:105960000E00057801343778002F04D1002D0FD1B7
:105970002800156006E00136BD42F4D1002BEED1BF
:1059800014600370F0BD2F000FE00133002E04D12E
:10599000230001341D7827000B001E78B542F4D196
:1059A000002DF0D00023013C23701760EAE70000CF
:1059B000002370B5064D040008002B60FCF72DF89D
:1059C000431C03D12B68002B00D0236070BDC04660
:1059D0000C04002070B50400080011001A00002318
:1059E000054D2B60FCF73AF8431C03D12B68002BC4
:1059F00000D0236070BDC0460C04002070B50400C8
:105A0000080011001A000023054D2B60FBF7CCFFA6
:105A1000431C03D12B68002B00D0236070BDC0460F
:105A20000C04002070B50400080011001A000023C7
:105A3000054D2B60FBF7D5FF431C03D12B68002BD2
:105A400000D0236070BDC0460C040020014B1868D4
:105A50007047C0467000002070B500260C4C0D4DFC
:105A6000641BA410A64209D1002601F01FF80A4CBD
:105A70000A4D641BA410A64205D170BDB300EB58BB
:105A800098470136EEE7B300EB5898470136F2E746
:105A9000186F0008186F00081C6F0008186F0008C6
:105AA000704770477FB514001A00094B05001B684A
:105AB0000E00D868074B002C01D1074B1C0007498A
:105AC000019302942B00009600F0AAFC00F0F2FC77
:105AD00070000020A66E0008E16E0008B36E00089A
